:020000040800F2
:1000000000800020512D0008A50A0008310B0008CF
:10001000330B0008350B0008370B00080000000008
:10002000000000000000000000000000390B000884
:100030003B0B0008000000003D0B00083F0B0008D0
:10004000A12D0008A12D0008A12D0008A12D000858
:10005000A12D0008A12D0008A12D0008A12D000848
:10006000A12D0008A12D0008A12D0008A12D000838
:10007000A12D0008A12D0008A12D0008A12D000828
:10008000A12D0008A12D0008A12D0008A12D000818
:1000900000000000A12D0008A12D0008A12D0008DE
:1000A000A12D0008A12D0008A12D0008A12D0008F8
:1000B000A12D0008A12D0008A12D0008A12D0008E8
:1000C000A12D0008A12D0008A12D0008A12D0008D8
:1000D000A12D0008A12D0008A12D0008A12D0008C8
:1000E000A12D0008A12D0008A12D0008A12D0008B8
:1000F000A12D00080000000000000000A12D000854
:10010000A12D0008A12D0008A12D0008A12D000897
:10011000A12D0008A12D0008A12D0008A12D000887
:10012000A12D0008A12D0008A12D0008A12D000877
:10013000A12D0008A12D000810B5054C237833B976
:10014000044B13B10448AFF300800123237010BDAA
:100150001000002000000000F82D000808B5034B37
:100160001BB103490348AFF3008008BD0000000045
:1001700014000020F82D000853B94AB9002908BF1F
:1001800000281CBF4FF0FF314FF0FF3000F074B972
:10019000ADF1080C6DE904CE00F006F8DDF804E0DE
:1001A000DDE9022304B070472DE9F047089E0D46B3
:1001B00004468846002B4DD18A42944668D9B2FA4B
:1001C00082F252B101FA02F3C2F1200120FA01F1E8
:1001D0000CFA02FC41EA030894404FEA1C45210C4A
:1001E000B8FBF5FE1FFA8CF705FB1E8341EA0343BB
:1001F0000EFB07F199420BD91CEB03030EF1FF3004
:1002000080F01E81994240F21B81AEF1020E6344E0
:100210005B1AA4B2B3FBF5F005FB103344EA0344C8
:1002200000FB07F7A7420AD91CEB040400F1FF33D7
:1002300080F00881A74240F2058164440238E41B43
:1002400040EA0E4000211EB1D4400023C6E900431D
:10025000BDE8F0878B4208D9002E00F0EE80002127
:10026000C6E900050846BDE8F087B3FA83F1002926
:100270004AD1AB4202D3824200F2F980841A65EB84
:10028000030301209846002EE2D0C6E90048DFE7CC
:1002900002B9FFDEB2FA82F2002A40F09180A1EBAF
:1002A0000C054FEA1C471FFA8CFE0121B5FBF7F342
:1002B00007FB1350250C45EA00450EFB03F0A8424E
:1002C00008D91CEB050503F1FF3802D2A84200F261
:1002D000CB8043462D1AA4B2B5FBF7F007FB1055AF
:1002E00044EA05440EFB00FEA64508D91CEB0404B5
:1002F00000F1FF3502D2A64500F2BB802846A4EBF0
:100300000E0440EA03409EE7C1F120078B4022FA29
:1003100007FC4CEA030C20FA07F405FA01F31C432E
:10032000FD404FEA1C4900FA01F3B5FBF9F8200C37
:100330001FFA8CFE09FB185540EA054508FB0EF034
:10034000A84202FA01F20BD91CEB050508F1FF3AAD
:1003500080F08880A84240F28580A8F102086544B8
:100360002D1AA4B2B5FBF9F009FB105544EA054576
:1003700000FB0EFEAE4508D91CEB050500F1FF346D
:100380006CD2AE456AD90238654440EA0840A0FB09
:100390000294A5EB0E05A542C846A64656D353D0F7
:1003A0005EB1B3EB080265EB0E0505FA07F722FA1A
:1003B00001F3CD401F43C6E900750021BDE8F08779
:1003C000C2F1200320FA03F10CFA02FC25FA03F330
:1003D00095400D434FEA1C471FFA8CFEB3FBF7F123
:1003E00007FB11302B0C43EA004301FB0EF098424F
:1003F00004FA02F408D91CEB030301F1FF382FD2F1
:1004000098422DD9023963441B1AADB2B3FBF7F001
:1004100007FB103345EA034500FB0EF3AB4208D956
:100420001CEB050500F1FF3816D2AB4214D9023897
:100430006544ED1A40EA014138E73146304607E7A6
:100440008646E5E61846FAE64B45A9D2B9EB02081E
:1004500064EB0C0E0138A3E74046EAE7204694E738
:100460004146D1E7D0467BE7023B654432E7084688
:1004700009E76444023842E7704700BF70B50D4D8C
:100480000D4C641BA4100026A64209D10B4D0C4C48
:1004900002F0B2FC641BA4100026A64205D170BD78
:1004A00055F8043B98470136EEE755F8043B98476A
:1004B0000136F2E700310008003100080031000881
:1004C0000431000802440346934200D1704703F808
:1004D000011BF9E710B594B0002404943C22214696
:1004E00005A8FFF7EFFF23E000243EE0013C14AB3A
:1004F0001C44002304F8403C4B4904A802F062FC71
:1005000050B14A4904A802F05DFC28B1484904A84A
:1005100002F058FC002847D1464800F0ADF94648A3
:1005200000F0AAF94022002104A8FFF7CBFF002425
:10053000424B1B68DA6912F0080F01D008221A62D8
:1005400040F6FF7301220DF10F013C4801F018F84D
:100550000028EDD1631C9BB214AA14449DF80F200F
:1005600004F8402C3F2BBFD81C46631E14AA13442A
:1005700013F8403C0D2B01D00A2BD9D1304A01ABE6
:1005800092E8030083E8030003222E4904A802F046
:1005900008FC0028AAD003222B4904A802F001FC81
:1005A0000028A3D00024C3E7284904A802F00AFCCD
:1005B00090B1274904A802F005FCD0B1254904A850
:1005C00002F000FCF0B1244904A802F0FBFB30BBB0
:1005D000224800F051F9A5E7214800F04DF9214BE0
:1005E00001221A704FF001311F4800F0DFF914B0FA
:1005F00010BD1E4800F040F900F034FA1C4800F02D
:100600003BF98FE7BFF34F8F1A49CA6802F4E062E3
:10061000194B1343CB60BFF34F8F00BFFDE7174863
:1006200000F02AF97EE700BF3C2E0008482E0008A3
:10063000542E000800500008642E000878000020A6
:10064000102E0008342E0008382E0008682E0008EE
:10065000902E0008DC2E0008E82E0008F82E000876
:10066000742E00082C00002004400008982E00087A
:10067000AC2E000800ED00E00400FA05042F00088D
:1006800008B5064B1B7813B1012B03D008BDFFF74B
:1006900021FFFBE700F0BCF9F8E700BF2C000020C9
:1006A00072B6FEE700B59BB04822002108A8FFF70C
:1006B00009FF002302930393049305930693079382
:1006C00015490A6822F4C06242F400720A600A689E
:1006D00002F4C0620192019A202208920122109233
:1006E0001193B0221292139308A801F0F5F978B98A
:1006F0004F230293002303930493059306930793D8
:10070000022102A801F024FD20B91BB05DF804FB12
:10071000FFF7C6FFFFF7C4FF0004005808B502F05A
:10072000EFFAFFF7BFFF00F013FA134B1B68B3F1AA
:100730005A3F0AD0104B1B68B3F15A3F16D10F48ED
:1007400000F09AF8FFF79CFFFCE70D4B1A680D4B81
:100750001340B3F1005FEDD1074B5B68B3F1013F8C
:10076000E8D000F007F900F00FF9E3E74FF05A3155
:10077000014800F01BF9E2E700400008182F0008CC
:10078000006000080000FE2F10B584460378302B6F
:1007900003D000242046234654E04378782B35D0FC
:1007A000582B36D00024204623464BE02401A3F1E9
:1007B000300E5FFA8EFEBEF1090F21D8303B1C448B
:1007C00001300A2815D81CF8003093B1A3F141027A
:1007D000D2B2052AEAD9A3F1610E5FFA8EFEBEF10C
:1007E000050FE3D9A3F1300E5FFA8EFEBEF1090FBB
:1007F000DCD91CF80030002B3BD10C60012010BD6F
:10080000052A01D8373BDAE7573BD8E70024022016
:10081000D7E700240220D4E76B2A1ED04B2A1CD035
:100820006D2A20D04D2A1ED0A2F1300E5FFA8EFE26
:10083000BEF1090FE3D804EB840402EB4402A2F1F9
:10084000300401330A2BDAD80028D8D11CF8032051
:10085000002AE1D10C600120F3E7002BE0D0A402D4
:100860000C600120EDE7002BDED024050C60012098
:10087000E7E70020C3E7000008B50146002201E0D9
:10088000013292B28B5C002BFAD16423014800F054
:1008900008FE08BD7800002000B583B08DF8070081
:1008A000094BD3F88430A02B09D0642301220DF129
:1008B0000701054800F0F5FD03B05DF804FB024BAD
:1008C0002022C3F88420F0E77800002000F178406F
:1008D000C00A704710B584B004460023039301F0AA
:1008E000DDFE0E4B4FF400421A612046FFF7EEFF8B
:1008F000C4F1006303F55C33DB0A0222009201902D
:10090000029303A9684601F0ADFF28B9002401F065
:10091000DDFE204604B010BD0124F8E70040005879
:10092000F0B583B005460C46174601F0B7FE002629
:1009300002E0083508340236BE4215D26B46206804
:10094000616803C3DDE900232946012001F002FFAD
:100950000028F0D128686A680099019B9A4208BF74
:100960008842E6D0032400E0002401F0AFFE2046D8
:1009700003B0F0BD08B5034800F038FB02F071F990
:1009800008BD00BF7800002008B5054A5368054936
:100990000B6005490B60126882F30888984708BD10
:1009A00000600008300000203400002070B588B0DE
:1009B00004460D4600230793134ED6E90023CDE9E4
:1009C000042301F06BFE114B4FF400421A613046D4
:1009D000FFF77CFF0223019302900123039307A9F1
:1009E00001A801F03FFF50B9B4420AD00595DDE9F6
:1009F00004230549012001F0ADFE01F067FE08B0B7
:100A000070BD0495F3E700BF0040000800400058A7
:100A100000B583B00023019301A800F0F3F910B1F1
:100A200003B05DF804FB4FF05A310A48FFF7BEFFF0
:100A30004FF002310848FFF7B9FF084B1A68084B1E
:100A40001340B3F1005FEBD1FFF794FFFFF79CFF7A
:100A5000E6E700BF0040000804400008006000080E
:100A60000000FE2F08B54FF05A310A48FFF79EFFED
:100A7000094B1A68094B1340B3F1005F00D008BD61
:100A8000044B5B68B3F1013FF9D0FFF773FFFFF749
:100A90007BFFF4E700400008006000080000FE2F24
:100AA000704700004FF0B0439A6B4FF0FF319963ED
:100AB000DA6BD9639A6B00229A63D86BDA63186C8D
:100AC0001964186C1A64586C5964586C5A64986AA2
:100AD0009962986A9A62D86AD962D86ADA62186B9F
:100AE0001963196B1A635A6C42F001025A645A6C0A
:100AF00022F001025A64D3F8902042F48032C3F805
:100B00009020D3F8902022F48032C3F89020BFF3D5
:100B10004F8F0549CA6802F4E062044B1343CB606F
:100B2000BFF34F8F00BFFDE700ED00E00400FA05C2
:100B3000704770477047FEE770477047704708B5C9
:100B400002F0F4F802F0FEF800F034FA08BD704745
:100B500008B51748174B03604FF4E1334360002397
:100B60008360C36003610C2242618361C3610362DD
:100B70004362836200F0D4FD70B900210C4800F09C
:100B800048FE60B900210A4800F068FE50B90848E4
:100B900000F020FE48B908BDFFF782FDEDE7FFF742
:100BA0007FFDEFE7FFF77CFDF1E7FFF779FDF2E767
:100BB000780000200044004010B596B004460021A3
:100BC00011911291139114911591382203A8FFF7F6
:100BD00079FC22681A4B9A4201D016B010BD02234C
:100BE00003934FF44023059303A801F0E3FB18BBE4
:100BF0004FF0B0439A6D42F400329A659A6D02F458
:100C000000320292029ADA6C42F00102DA64DB6C82
:100C100003F001030193019B0C2311930223129310
:100C200001231393002314930723159311A94FF065
:100C3000904001F057FED0E7FFF732FDD8E700BF44
:100C40000044004008B50268074B9A4200D008BD36
:100C50004FF0B042936D23F4003393650C214FF0B5
:100C6000904001F011FFF2E700440040BFF34F8FC6
:100C70000549CA6802F4E062044B1343CB60BFF33A
:100C80004F8F00BFFDE700BF00ED00E00400FA0554
:100C900041F4807106E080F4815080F0010011F48D
:100CA000803F09D14000490011F4807F00D001301D
:100CB00010F4803FF3D0EEE780B2704738B50446B9
:100CC0004518002004E014F8011B80B2FFF7E0FF94
:100CD000AC42F8D3002180B2FFF7DAFF0021FFF722
:100CE000D7FF38BD2DE9F04182B006460C461546C7
:100CF00000230B60134601220DF10701404800F06C
:100D00003FFC8046002872D19DF80710182919D899
:100D10004BB2002B48D0013917290FD8DFE801F07A
:100D200048310E0C0E0E0E0E0E0E0E0E0E0E0E0E88
:100D30000E0E0E0E0E0E0E3400270AE04FF00108C4
:100D4000002706E0412935D0612937D14FF002084C
:100D500000279DF8073033707F2F49D92B463A1D65
:100D6000B11C274800F00CFC8046002845D1B27821
:100D7000F378DB43DBB29A422AD04FF00108002718
:100D800036E04FF48067E4E72B4601220DF10701BE
:100D90001B4800F0F5FBA8B99DF80730182B15D0BB
:100DA0004FF001080027D4E74FF001080027D0E7F3
:100DB0008027CEE74FF002080027CAE74FF001086E
:100DC0000027C6E74FF001080027C2E70227C0E767
:100DD000F3191A795D7905EB02253946301DFFF7C5
:100DE0006DFFA84204D04FF00108002700E0002763
:100DF0002760404602B0BDE8F0810027F8E700BF59
:100E0000780000202DE9F04F89B001904FF00008E4
:100E10004646DFF888B1C1464546C246BAF1000FE2
:100E200040F0B880002E40F0B5805D4B00221A7073
:100E3000574685E0079D3DB1022D0AD10620FFF7F8
:100E40002BFD3D4602267BE00620FFF725FD01270E
:100E500076E0544B9A78524B1B789A420BD1002B78
:100E600053D1504B1B79CBB90620FFF715FD3D46FA
:100E70000127BA4664E01520FFF70EFD3D465FE00E
:100E80000133494881540132197809B13F2AF7D911
:100E900045490020885401333A4608E03A46434B1E
:100EA000F2E7013308A8104400F8181C0132197841
:100EB000202901D00F2AF4D908AB1A44002302F8E4
:100EC000183C06A902A8FFF75FFC069A384B9A4225
:100ED00013D83248FFF7FEFC069B019A13600620E8
:100EE000FFF7DAFC4320FFF7D7FC2D4A13780133D4
:100EF00013703D464FF0010922E01820FFF7CCFCAB
:100F00001820FFF7C9FC0526E3E7AA082749584639
:100F1000FFF706FD28B9079B9B440620FFF7BCFCA2
:100F2000E3E71820FFF7B8FC1820FFF7B5FC04260C
:100F3000DBE71820FFF7B0FC1820FFF7ADFC2646D2
:100F4000002F7FF46BAF002E7FF468AF4FF4FA727E
:100F500007A91448FFF7C6FE044600283FF46AAF0D
:100F60000228E6D0B9F1000F00D00135052D07D9D0
:100F70001820FFF791FC1820FFF78EFC0226DFE710
:100F80004320FFF789FC08F10108B8F13B0FD7D9DE
:100F9000FFF76CFE304609B0BDE8F08F0060000836
:100FA0000E05002008010020380000200C01002060
:100FB0000110030008B50A4BA3FB00231B0B43F6EB
:100FC000982202FB130343B9064B1B782BB1064A48
:100FD0001278934202D0044A137008BDFFF746FE10
:100FE00073B2E7450E0500200F050020E8B138B5C3
:100FF00005462423C0F884300268136823F00103F7
:101000001360036800241C6003685C6003689C60D4
:10101000FFF718FEC5F88C40C5F88440C5F8884035
:10102000EC6685F88040204638BD012070470000FE
:1010300070B504460168836802691343426913432B
:10104000C269134308689D4A024013430B6022683B
:10105000536823F44053E1680B435360A16922684D
:10106000974B9A4201D0236A1943936823F06E4349
:1010700023F430630B4393602268D36A23F00F0399
:10108000616A0B43D36223688E4A93421CD08E4A16
:10109000934231D08A4A93424BD0102288498B42E6
:1010A00068D0E069B0F5004F00F0A580082A00F292
:1010B0001F81DFE812F0D300F500D1001D01F80018
:1010C0001D011D011D01FB004FF0B042D2F8882028
:1010D00002F0030242F44032A2F54032032A09D85A
:1010E000DFE802F002043C060122D7E70422D5E73C
:1010F0000822D3E71022D1E74FF0B042D2F888207F
:1011000002F00C0242F44022A2F540220C2A0ED832
:10111000DFE802F0070D0D0D090D0D0D260D0D0D6B
:101120000B000022BAE70422B8E70822B6E7102233
:10113000B4E74FF0B042D2F8882002F44062B2F532
:10114000006F0FD005D87AB1B2F5806F0ED10422AE
:10115000A4E7B2F5406F0BD108229FE702229DE77A
:1011600002229BE7022299E7002297E7102295E7E7
:10117000102293E7082A00F29C80DFE802F0089A28
:101180003A9A379A9A9A05004FF4004004E001F029
:10119000F1F8002800F08F80626A4C4B33F812207F
:1011A000B0FBF2F3656805EB4501994200F29480CB
:1011B000B3EB053F00F29280002633463146FEF73E
:1011C000DBFF090241EA106100026B08C0182A46E1
:1011D000334641F10001FEF7CFFFA0F540723C4BD2
:1011E0009A427DD82368D860304650E000F0DCFB9E
:1011F000CFE73848D0E7082A74D8DFE802F007279D
:1012000005732A7373730B00324803E001F0B2F8E0
:10121000002869D0626A2D4B33F81230B0FBF3F02E
:101220006268530803EB4000B0FBF2F080B2A0F11B
:1012300010024FF6EF739A4258D820F00F03C0F314
:10124000420018432368D860002020E001F0A2F893
:10125000DEE700F0A9FBDBE71E4803E001F08AF8B7
:10126000002847D0626A194B33F81230B0FBF3F014
:10127000636800EB5300B0FBF3F080B2A0F1100202
:101280004FF6EF739A4237D82368D86000200123C5
:10129000A4F86A30A4F8683000232367636770BD40
:1012A00001F078F8DCE700F07FFBD9E74FF400406D
:1012B000D8E70120EBE70020E9E700BFF369FFCFA3
:1012C000008000400038014000440040C82F000862
:1012D000FFFC0F000024F4000120D8E70120D6E72E
:1012E0000120D4E70120D2E70020D0E70120CEE79B
:1012F0000120CCE70020CAE70120C8E7836A13F089
:10130000010F06D00268536823F40033C16A0B430F
:101310005360836A13F0020F06D00268536823F407
:101320008033016B0B435360836A13F0040F06D0C4
:101330000268536823F48023416B0B435360836A34
:1013400013F0080F06D00268536823F40043816B42
:101350000B435360836A13F0100F06D00268936842
:1013600023F48053C16B0B439360836A13F0200F07
:1013700006D00268936823F40053016C0B4393601A
:10138000836A13F0400F0AD00268536823F4801375
:10139000416C0B435360436CB3F5801F0BD0836AE1
:1013A00013F0800F06D00268536823F40023C16C49
:1013B0000B43536070470268536823F4C003816C89
:1013C0000B435360EBE72DE9F84305460F461646FD
:1013D0009946DDF820802C68E46937EA04030CBFE5
:1013E0004FF0010C4FF0000CB44557D1B8F1FF3F5E
:1013F000F1D001F0A7FCA0EB090040452FD8B8F1CF
:10140000000F2CD02B681A6812F0040FE3D0DA69B1
:1014100012F4006FDFD04FF400621A622A6852E8BB
:10142000003F23F4D07342E800310029F6D12A6846
:1014300002F1080353E8003F23F00103083242E8B9
:1014400000310029F3D12023C5F88430C5F8883055
:10145000C5F88C30002385F8803003201FE02A680F
:1014600052E8003F23F4D07342E800310029F6D15E
:101470002A6802F1080353E8003F23F00103083211
:1014800042E800310029F3D12023C5F88430C5F8A3
:101490008830002385F88030032000E00020BDE87C
:1014A000F8832DE9F04182B01E46D0F88430202B1D
:1014B00058D104460D469046002957D0002A57D0EF
:1014C00090F88030012B55D0012380F88030002324
:1014D000C0F88C302123C0F8843001F033FC07467B
:1014E000A4F85480A4F85680A368B3F5805F05D0B3
:1014F0004FF00008002384F8803014E0236913B112
:101500004FF00008F6E7A8460025F3E738F8023B5D
:101510002268C3F308039362B4F8562092B2013AEA
:1015200092B2A4F85620B4F856309BB273B100962C
:101530003B46002280212046FFF745FFE0B9002D01
:10154000E4D015F8012B23689A62E5E700963B4644
:10155000002240212046FFF736FF78B92023C4F847
:10156000843000E0022002B0BDE8F0810120FAE7FB
:101570000120F8E70220F6E70320F4E70320F2E772
:101580002DE9F04383B01E46D0F88830202B40F080
:10159000818004460D46904600297FD0002A7FD0E6
:1015A00090F88030012B7DD0012380F8803000231B
:1015B000C0F88C302222C0F88820C36601F0C2FB3C
:1015C0000746A4F85C80A4F85E80A368B3F5805F4A
:1015D00006D0A3B9226972B9FF22A4F8602014E0F2
:1015E000226922B940F2FF12A4F860200DE0FF2228
:1015F000A4F8602009E07F22A4F8602005E0B3F1A0
:10160000805F0DD00022A4F86020B4F86080B3F5AC
:10161000805F0FD04FF00009002384F880301EE077
:1016200022691AB97F22A4F86020EEE73F22A4F8CD
:101630006020EAE7236913B14FF00009ECE7A946FF
:101640000025E9E723685B6A08EA030329F8023BFF
:10165000B4F85E2092B2013A92B2A4F85E20B4F8D7
:101660005E309BB28BB100963B4600222021204683
:10167000FFF7A9FEC0B9002DE4D023685A6A5FFACB
:1016800088F3134005F8013BE2E72023C4F88830D3
:10169000002000E0022003B0BDE8F0830120FAE75B
:1016A0000120F8E70220F6E70320F4E730B583B025
:1016B00004460023C0F88C3001F044FB0546226844
:1016C000126812F0080F0FD123681B6813F0040F83
:1016D00018D12023C4F88430C4F888300020E06694
:1016E00084F8800003B030BD6FF07E430093034662
:1016F00000224FF400112046FFF765FE0028E3D0DA
:101700000320EFE76FF07E4300932B4600224FF457
:1017100080012046FFF757FE0028DAD00320E1E7DA
:1017200078B310B50446D0F884300BB32423C4F842
:1017300084302268136823F0010313602046FFF70A
:1017400077FC012813D0A36ABBB92268536823F43D
:10175000904353602268936823F02A0393602268C1
:10176000136843F0010313602046FFF79FFF10BD8D
:1017700080F88030FFF720FAD8E72046FFF7BEFD5B
:10178000E3E7012070470000436E2BB90123A0F866
:101790006A30A0F86830704730B403689A68C2F3C2
:1017A00042629968490F094D6B5CDB00084C615C33
:1017B00093FBF1F3A0F86A30AB5CDB00A25C93FB17
:1017C000F2F3A0F8683030BC704700BFE82F000883
:1017D000E02F000890F88030012B18D0012380F80A
:1017E00080302423C0F8843003681A68196821F017
:1017F0000101196022F000520023436601680A606B
:101800002022C0F8842080F88030184670470220DB
:10181000704738B590F88030012B1DD00446012365
:1018200080F880302423C0F8843003681D681A686B
:1018300022F001021A600268936823F060431943A2
:101840009160FFF7A1FF23681D602023C4F8843056
:10185000002084F8800038BD0220FCE738B590F8FD
:101860008030012B1DD00446012380F880302423D2
:10187000C0F8843003681D681A6822F001021A60FB
:101880000268936823F0606319439160FFF77CFF5F
:1018900023681D602023C4F88430002084F8800071
:1018A00038BD0220FCE7000030B589B004468C4604
:1018B0002A4B93E803000690ADF81C1003F10802D0
:1018C00092E803000490ADF8141001AD103393E8D2
:1018D000070085E80700BCF5007F07D0002314E06F
:1018E00008AA02EB830353F81C5C1EE00023022BC2
:1018F00008D808AA02EB430232F8082CA242EFD221
:101900000133F4E7002510E00133022B0CD808AABC
:1019100002EB430232F8102CA242F5D308AA02EBE4
:10192000830353F81C5C00E000250D4A136823F084
:1019300007032B43136001F005FA0446084B1B68AC
:1019400003F00703AB4206D001F0FCF9001B0228AC
:10195000F4D9032000E0002009B030BD182E0008A3
:101960000040005810B5C0F303100C4B53F8204052
:101970004FF0B043D3F8083103F00F03084A52F890
:101980002300B4FBF0F401F005F901460548A0FB83
:101990000430800CFFF788FF10BD00BF882F0008BF
:1019A000282F000883DE1B434FF0B0439968DB68A3
:1019B00003F0030311F00C010AD00C2906D004290E
:1019C00047D008293BD00022104626E0012BF6D153
:1019D0004FF0B0431B6813F008030DD04FF0B04335
:1019E0001B6813F0080324D14FF0B042D2F89420C2
:1019F0002E4A52F823200EE04FF0B042126812F047
:101A0000080F12D14FF0B043D3F89430C3F303233F
:101A1000264A52F82320D1B100204FF0B0439B68F2
:101A200003F00C030C2B1AD070474FF0B042126831
:101A3000EEE74FF0B0431B68C3F30313D8E74FF052
:101A4000B0431A6812F4801206D11948E5E710462F
:101A5000E3E700221748E0E700221648DDE74FF0F1
:101A6000B043DB6803F00303022B09D0032B08D13A
:101A70004FF0B0431B6813F4801F15D10C4A00E0EF
:101A80000C4A4FF0B043D868C0F3062000FB02F2C6
:101A9000D868C0F302100130B2FBF0F2D868400FF2
:101AA0000130B2FBF0F0BFE7024AEAE7882F0008F6
:101AB0000048E8010024F40008B5FFF775FF4FF077
:101AC000B0439B68C3F30313024A52F82330B0FBC0
:101AD000F3F008BD282F0008002800F01983F8B59E
:101AE00004464FF0B0439D6805F00C05DE6806F033
:101AF0000306036813F0200F00F08F80EDB10C2D6A
:101B000019D0236A002B00F0BC804FF0B04213685C
:101B100043F00103136001F015F907464FF0B0439D
:101B20001B6813F0020F65D101F00CF9C01B0228ED
:101B3000F4D90320F9E2012EE3D14FF0B0431B6842
:101B400013F0020F03D0236A002B00F0E382A06A97
:101B50004FF0B0431B6813F0080F29D04FF0B0438B
:101B60001B6803F0F00398422AD9FFF7FBFE002818
:101B700040F0D2824FF0B0431A6842F008021A6077
:101B80001A6822F0F002A16A0A431A60616A5A6870
:101B900022F47F4242EA01225A60FFF78DFFB04BE8
:101BA0001860B04B186801F083F8002835D0BCE20B
:101BB0004FF0B043D3F894301B0903F0F003D2E7A1
:101BC0004FF0B0431A6842F008021A601A6822F017
:101BD000F002A16A0A431A60616A5A6822F47F42DD
:101BE00042EA01225A60A06AFFF7BCFE0028D4D066
:101BF00001209AE24FF0B0431A6842F008021A60DE
:101C00001A6822F0F002A16A0A431A60616A5A68EF
:101C100022F47F4242EA01225A60236813F0010F46
:101C200051D0082D45D00C2D41D04FF0B042136853
:101C300023F48013A1680B4313606368B3F5803FFE
:101C400063D0B3F5041F65D04FF0B0431A6822F497
:101C500080321A601A6822F400121A606368002B3E
:101C600063D001F06FF807464FF0B0431B6813F4E0
:101C7000003F28D101F066F8C01B6428F4D9032086
:101C800053E24FF0B042136823F00103136001F0F8
:101C900059F807464FF0B0431B6813F0020FBCD051
:101CA00001F050F8C01B0228F4D903203DE2032EB6
:101CB000BBD14FF0B0431B6813F4003F03D06368FF
:101CC000002B00F02B82236813F0020F52D0042D5A
:101CD0003DD00C2D39D02369002B00F091804FF0BE
:101CE000B042136843F48073136001F02BF806468A
:101CF0004FF0B0431B6813F4806F77D101F022F8E6
:101D0000801B0228F4D903200FE2136843F48033C8
:101D10001360A3E74FF0B0431A6842F400121A6050
:101D20001A6842F480321A6098E701F00BF807460F
:101D30004FF0B0431B6813F4003FC4D001F002F829
:101D4000C01B6428F4D90320EFE1022EC3D14FF069
:101D5000B0431B6813F4806F03D02369002B00F09D
:101D6000DF8161694FF0B042536823F0FE4343EADC
:101D700001635360236813F0080F00F08E80A3699D
:101D8000002B71D04FF0B043D3F89430E16903F0E9
:101D90001002914211D003F00302022A00F0C28126
:101DA00013F0010F42D14FF0B042D2F8943023F03B
:101DB0001003E1690B43C2F894304FF0B042D2F8FF
:101DC000943043F00103C2F8943000F0BBFF0646A4
:101DD0004FF0B043D3F8943013F0020F5DD100F010
:101DE000B1FF801B1128F3D903209EE161694FF0F8
:101DF000B042536823F0FE4343EA01635360B9E7FE
:101E00004FF0B042136823F48073136000F09AFF20
:101E100006464FF0B0431B6813F4806FAAD000F061
:101E200091FF801B0228F4D903207EE14FF0B042DD
:101E3000D2F8943023F00103C2F8943000F082FF0E
:101E400006464FF0B043D3F8943013F0020FAAD0F7
:101E500000F078FF801B1128F3D9032065E100BF53
:101E600000000020080000204FF0B042D2F894306B
:101E700023F00103C2F8943000F064FF06464FF0EF
:101E8000B043D3F8943013F0020F06D000F05AFF9D
:101E9000801B1128F3D9032047E1236813F0040FB6
:101EA00000F0B180A84B1B6813F4807F10D100F0C4
:101EB00069FE00F047FF0646A34B1B6813F4807FC2
:101EC00006D100F03FFF801B0228F5D903202CE14A
:101ED000E368002B61D0852B01D0052B07D14FF093
:101EE000B042D2F8903043F00403C2F8903000F0D2
:101EF00029FF06464FF0B042D2F8903043F001037C
:101F0000C2F890304FF0B043D3F8903013F0020F86
:101F100008D100F017FF801B41F288339842F1D9B5
:101F2000032002E1E368812B01D0852B1AD100F058
:101F300009FF06464FF0B042D2F8903043F08003DC
:101F4000C2F890304FF0B043D3F8903013F4006FE4
:101F500059D100F0F7FE801B41F288339842F1D945
:101F60000320E2E000F0EEFE06464FF0B042D2F869
:101F7000903023F08003C2F890304FF0B043D3F894
:101F8000903013F4006F3ED000F0DCFE801B41F275
:101F900088339842F1D90320C7E000F0D3FE06460B
:101FA0004FF0B042D2F8903023F08003C2F8903066
:101FB0004FF0B043D3F8903013F4006F08D000F026
:101FC000C1FE801B41F288339842F1D90320ACE076
:101FD00000F0B8FE06464FF0B042D2F8903023F041
:101FE0000103C2F890304FF0B043D3F8903013F0B3
:101FF000020F08D000F0A6FE801B41F28833984201
:10200000F1D9032091E0E36A002B00F08D800C2DC4
:1020100062D0022B1FD04FF0B0431A6822F08072BA
:102020001A60DA6822F00302DA60DA6822F0885275
:1020300022F48032DA6000F085FE04464FF0B043AF
:102040001B6813F0007F73D000F07CFE001B0A2891
:10205000F4D9032069E04FF0B042136823F0807395
:10206000136000F06FFE05464FF0B0431B6813F09D
:10207000007F2AD14FF0B042D36834491940236B16
:10208000606B0343A06B43EA0023E06B0343206CC7
:102090000343606C03430B43D360136843F08073C6
:1020A0001360D36843F08053D36000F04BFE0446C6
:1020B0004FF0B0431B6813F0007F37D100F042FEB1
:1020C000001B0A28F4D903202FE000F03BFE401B40
:1020D0000A28C9D9032028E0012B2BD04FF0B043A8
:1020E000DB6803F00301226B914225D103F07002FB
:1020F000616B8A4222D103F4FE42A16BB2EB012F45
:102100001ED103F06043626C93421BD100200CE0AF
:1021100001207047012008E0012006E0012004E0D2
:10212000012002E0012000E00020F8BD0020FCE7D3
:102130000020FAE70120F8E70120F6E70120F4E7A4
:102140000120F2E70120F0E7000400588C80C11163
:10215000002800F0048170B50C460546824B1B68D0
:1021600003F007038B4227D32B6813F0020F39D1FA
:102170002B6813F0400F4DD12B6813F0040F65D17D
:102180002B6813F0080F79D12B6813F0010F00F0C2
:10219000C1806B68022B00F08B80032B00F09080D5
:1021A000002B40F095804FF0B042126812F0020F01
:1021B00040F094800120D1E06B4A136823F00703BC
:1021C0000B43136000F0BEFD0646674B1B6803F02F
:1021D0000703A342C8D000F0B5FD801B0228F4D944
:1021E0000320BBE0AB684FF0B0418A6822F0F002F8
:1021F00013438B6000F0A6FD06464FF0B0439B688A
:1022000013F4803FB4D100F09DFD801B0228F4D967
:102210000320A3E069694FF0B042D2F8083123F0FF
:102220000F0343EA1113C2F8083100F08BFD064694
:102230004FF0B043D3F8083113F4803F9CD100F045
:1022400081FD801B0228F3D9032087E0EB684FF063
:10225000B0418A6822F4E06213438B6000F072FDA3
:1022600006464FF0B0439B6813F4003F88D100F05E
:1022700069FD801B0228F4D903206FE029694FF023
:10228000B042936823F4605343EAC103936000F0C3
:1022900059FD06464FF0B0439B6813F4802F7FF43E
:1022A00073AF00F04FFD801B0228F3D9032055E0E7
:1022B0004FF0B042126812F4003F0FD101204DE000
:1022C0004FF0B042126812F0007F07D1012045E0C4
:1022D0004FF0B042126812F4806F42D04FF0B0411C
:1022E0008A6822F0030213438B6000F02BFD064640
:1022F0004FF0B0439B6803F00C036A68B3EB820FA6
:1023000008D000F01FFD801B41F288339842EFD9BE
:10231000032023E0144B1B6803F00703A34215D9E5
:10232000114A136823F007032343136000F00AFDEA
:1023300005460D4B1B6803F00703A34206D000F0CF
:1023400001FD401B0228F4D9032007E0FFF7B4FB8E
:10235000064B1860064B186800F0AAFC70BD0120FF
:1023600070470120FAE700BF00400058000000203D
:102370000800002008B5FFF79FFB4FF0B0439B68B3
:10238000C3F30223024A52F82330D84008BD00BFED
:10239000682F000808B5FFF78FFB4FF0B0439B682C
:1023A000C3F3C223024A52F82330D84008BD00BF0D
:1023B000682F000870B50446036813F4803F40F0AE
:1023C000AB800025236813F0010F0AD062684FF03C
:1023D000B041D1F8883023EA124392B21343C1F8D6
:1023E0008830236813F0020F0AD0A2684FF0B04182
:1023F000D1F8883023EA124392B21343C1F88830EF
:10240000236813F0200F09D023694FF0B041D1F8B1
:10241000882022F440621343C1F88830236813F403
:10242000007F0CD0206A4FF0B041D1F88830020C08
:10243000120423EA020343EA0043C1F88830236808
:1024400013F4806F0CD0606A4FF0B041D1F888303F
:10245000020C120423EA020343EA0043C1F8883065
:10246000236813F4006F0CD0A06A4FF0B041D1F88C
:102470008830020C120423EA020343EA0043C1F845
:102480008830236813F0400F40F09E80236813F0DB
:10249000800F40F0AA80236813F4807F40F0B6805C
:1024A000236813F0100F0ED0E3684FF0B041D1F85D
:1024B000882022F440721343C1F88830E368B3F5F2
:1024C000807F00F0B480236813F4004F0FD0236B9B
:1024D0004FF0B041D1F8882022F040421343C1F8B8
:1024E0008830236B1BB9CB6843F08073CB602368C3
:1024F00013F4804F0ED0E36A4FF0B041D1F888203A
:1025000022F040521343C1F88830E36AB3F1005F10
:1025100000F09280284670BD00F034FB00F012FC01
:102520000546484B1B6813F4807F06D100F00AFC77
:10253000401B0228F5D9032500E00025002D7FF47B
:1025400041AF4FF0B043D3F8903003F44073626B67
:102550009A4224D04FF0B043D3F8902022F4407236
:10256000D3F8901041F48031C3F89010D3F8901054
:1025700021F48031C3F89010C3F8902012F0020FBC
:102580000FD1002D7FF41EAF636B4FF0B041D1F837
:10259000902022F440721343C1F8903012E70022D9
:1025A000ECE700F0CFFB06464FF0B043D3F8903095
:1025B00013F0020FE5D100F0C5FB801B41F2883318
:1025C0009842F1D90325DCE763694FF0B040D0F8B9
:1025D0008820190901F47F2122EA01021B0103F47A
:1025E0007F231343C0F8883050E7A3694FF0B04011
:1025F000D0F88820190901F47F2122EA01021B0189
:1026000003F47F231343C0F8883044E7E3694FF0B5
:10261000B040D0F88820190901F47F2122EA010294
:102620001B0103F47F231343C0F8883038E7CB68DD
:1026300043F08073CB6046E7CB6843F48033CB60D4
:1026400068E700BF0004005810B4054C616941F010
:10265000010161610260BFF36F8F436010BC70477E
:10266000004000580C4A536943F480235361EFF350
:10267000108C72B6402351F8042B40F8042B013B18
:1026800013F0FF03F7D1044B1B6913F4803FFAD119
:102690008CF31088704700BF00400058094B5B69FD
:1026A000002B01DB00207047064B074A9A6002F1BD
:1026B00088329A605B69002B01DB002070470120A3
:1026C000704700BF0040005823016745054B5A6919
:1026D00042F000425A615B69002B01DB0120704728
:1026E000002070470040005838B5054600F02AFB2E
:1026F0000446164B1B6913F4803F06D000F022FB02
:10270000001BA842F5D3032038BD104B1B6913F002
:10271000010F02D00D4A012111614CF2FA3213402F
:1027200001D00A4A13615BB9084B1B6913F4802F6F
:102730000AD000F007FB001BA842F5D30320E3E713
:10274000034A53600120DFE70020DDE70040005826
:1027500010050020F8B51F46154B1B78012B25D01E
:1027600004460D461646124B01221A7000225A608A
:102770004FF47A70FFF7B8FF70B9012C10D03146D2
:102780002846FFF76FFF4FF47A70FFF7ADFF094A55
:10279000536923EA04045461054B00221A70F8BD02
:1027A00032463B462846FFF74FFFECE70220F6E7AC
:1027B0001005002000400058034A536943F4803359
:1027C00043F004035361704700400058184B1B68E6
:1027D00003F40073012B06D0154B1B6803F48063D0
:1027E000012B12D07047124B1A6822F400721A6043
:1027F0001A6842F400621A601A6822F400621A60D1
:102800001A6842F400721A60E6E7094B1A6822F46B
:1028100080621A601A6842F480521A601A6822F4C0
:1028200080521A601A6842F480621A60DAE700BFC8
:1028300000400058034A536923F47E7323F00203D7
:102840005361704700400058054A536923F47E7372
:1028500043EAC00040F4803040F00200506170470D
:1028600000400058F8B51E4B1B78012B35D00546AB
:102870000F461B4B01221A7000225A604FF47A70E7
:10288000FFF732FF064618BB2B68042B13D04FF01E
:10289000FF333B606C686B68AA681344A34213D98A
:1028A0002046FFF7D1FF4FF47A70FFF71DFF064671
:1028B00048B90134EFE7FFF77FFF4FF47A70FFF775
:1028C00013FF064602E03C60FFF7B4FFFFF77EFF10
:1028D000034B00221A703046F8BD0226FBE700BF0A
:1028E0001005002070B5002369E085685E000324B0
:1028F000B44025EA0405CC68B4402C4384604468A5
:1029000024EA0C0C4C68C4F300149C4044EA0C0408
:10291000446065E0DD08083550F8256003F00704E1
:102920004FEA840C0F2404FA0CF426EA040E0C6916
:1029300004FA0CF444EA0E0440F8254067E002244F
:1029400000E0002404FA0EF42C430CF1020C4B4D71
:1029500045F82C404A4CD4F88050D44325EA02066E
:10296000D1F804C01CF4803F01D042EA0506444D72
:10297000C5F88060D5F8845004EA0506D1F804C093
:102980001CF4003F01D042EA05063D4DC5F88460C5
:102990002D6804EA0506D1F804C01CF4801F01D09C
:1029A00042EA0506364D2E606D682C404E6816F4DE
:1029B000001F01D042EA0504314A546001330A681D
:1029C00032FA03F458D04FF0010C0CFA03FC1CEA65
:1029D0000202F3D04C6804F00304013C012C84D9BA
:1029E0004C6804F00304032C0CD0C4685D004FF065
:1029F000030C0CFA05FC24EA0C0C8C68AC4044EA8D
:102A00000C04C4604C6804F00304022C82D00468F7
:102A10004FEA430E4FF0030C0CFA0EFC24EA0C0CA8
:102A20004C6804F0030404FA0EF444EA0C04046055
:102A30004C6814F4403FC1D04FEA930C0CF10205EE
:102A40000E4C54F8255003F003044FEA840E07247B
:102A500004FA0EF425EA0405B0F1904F3FF471AF8B
:102A6000084CA04206D004F58064A0423FF467AF52
:102A7000072467E7012465E770BD00BF000001403F
:102A80000008005800040048002331FA03F271D016
:102A9000F0B52EE0022500E0002505FA0CFCA44567
:102AA00049D004685D004FF0030C0CFA05FC44EAC1
:102AB0000C0404604FEAD30E0EF1080E50F82E40BD
:102AC00003F00705AE000F25B54024EA050440F8E1
:102AD0002E40846824EA0C048460446824EA0202DC
:102AE0004260C26822EA0C02C260013331FA03F28A
:102AF0003FD001229A4012EA0107F6D09E08B51C89
:102B00001D4C54F8254003F0030C4FEA8C0C4FF099
:102B1000070E0EFA0CFE0EEA0404B0F1904FBBD083
:102B2000164DA84205D005F58065A842B2D007250C
:102B3000B3E70125B1E7124CD4F8805025EA070528
:102B4000C4F88050D4F8845025EA0705C4F88450AE
:102B5000256825EA07052560656825EA0707676097
:102B6000054D023655F8264024EA0E0445F8264065
:102B700097E7F0BD704700BF000001400004004827
:102B800000080058024A136843F4807313607047CA
:102B900000040058024B186800F4C060704700BF82
:102BA00000040058074AD36823F4E0631B041B0C9D
:102BB000000200F4E060034343F0BF6343F40033DA
:102BC000D360704700ED00E000B5194BDB68C3F33C
:102BD0000223C3F1070CBCF1040F28BF4FF0040C13
:102BE00003F1040EBEF1060F18D9033B4FF0FF3E70
:102BF0000EFA0CFC21EA0C0199400EFA03F322EACA
:102C00000303194300280BDB0901C9B200F160403E
:102C100000F5614080F800135DF804FB0023E5E750
:102C200000F00F000901C9B2024B1954F4E700BFCC
:102C300000ED00E014ED00E00138B0F1807F0BD230
:102C40004FF0E0235861054AF02182F8231000205C
:102C5000986107221A6170470120704700ED00E07B
:102C6000704710B54FF0B0439A6B4FF0FF329A6344
:102C7000D96BDA63996B00249C63D96BDC63196CA4
:102C80001A64196C1C64596C5A64596C5C64996AB6
:102C90009A62996A9C62D96ADA62D96ADC62196BB3
:102CA0001A631A6B1C63FFF7DBFF204610BD0000A0
:102CB000114B1B780BB90120704710B50446FEF785
:102CC000FBFE0D4B1A784FF47A73B3FBF2F3B0FBB3
:102CD000F3F0FFF7B1FF68B90F2C01D901200AE02A
:102CE000002221464FF0FF30FFF76EFF034B1C60C0
:102CF000002000E0012010BD04000020080000209A
:102D000010B50320FFF74EFFFEF7D6FE064B186006
:102D10000F20FFF7CDFF10B10124204610BD04465F
:102D2000FDF7BEFEF9E700BF00000020034B1B7853
:102D3000034A11680B441360704700BF0400002071
:102D400028050020014B1868704700BF28050020A7
:102D50000D488546FDF7FBFE0C480D490D4A002342
:102D600002E0D458C4500433C4188C42F9D30A4A40
:102D70000A4C002301E013600432A242FBD3FDF7AA
:102D80007DFBFDF7CBFCFEE700800020000000206B
:102D90001000002020500008100000203005002006
:102DA000FEE710B501390244904201D1002005E050
:102DB000037811F8014FA34201D0181B10BD013058
:102DC000F2E7000030B50B4D044614F8013B5A5DA4
:102DD00002F00302012A11F8012BA85C00F00300A5
:102DE00008BF2033012808BF2032981A01D1002AD9
:102DF000EBD130BDF12F0008F8B500BFF8BC08BC1E
:102E00009E467047F8B500BFF8BC08BC9E467047A8
:102E1000342E0008382E0008120024003000000074
:102E200006000C001000000000000000010000007F
:102E30000200000061742B0041542B0061742B765A
:102E4000657273696F6E000061742B7665723D3F29
:102E50000000000061742B626F6F747665723D3FF5
:102E6000000000000D0A000061742B75706461742D
:102E7000650000005374617274206669726D776139
:102E8000726520757067726164652E2E2E0D0A00C2
:102E900061742B72756E000053746F7020426F6FF7
:102EA00074204D6F64650D0A000000004A756D7056
:102EB000206661696C65642E204E6F206C656761C9
:102EC0006C206170706C69636174696F6E206465F9
:102ED0007465637465642E0D0A00000061742B72C2
:102EE000657365740000000061742B626F6F74730A
:102EF0007461747573000000426F6F74204D6F64CD
:102F0000650D0A004154206E6F7420737570706FE8
:102F100072742E0D0A0000003C424F4F54204D4F5A
:102F200044453E0D0A0000000100000003000000BF
:102F30000500000001000000010000000600000084
:102F40000A00000020000000020000000400000051
:102F50000800000010000000400000008000000099
:102F6000000100000002000000000000000000005E
:102F7000000000000000000001000000020000004E
:102F80000300000004000000A0860100400D0300C3
:102F9000801A060000350C0040420F0080841E009D
:102FA00000093D0000127A000024F40000366E0192
:102FB0000048E801006CDC02000000000000000096
:102FC00000000000000000000100020004000600F4
:102FD00008000A000C0010002000400080000001E2
:102FE00008040204080101010101010307010000B6
:102FF00000202020202020202020282828282820C9
:1030000020202020202020202020202020202020C0
:103010002088101010101010101010101010101028
:103020001004040404040404040404101010101018
:1030300010104141414141410101010101010101E2
:103040000101010101010101010101011010101034
:1030500010104242424242420202020202020202B4
:103060000202020202020202020202021010101008
:103070002000000000000000000000000000000030
:103080000000000000000000000000000000000040
:103090000000000000000000000000000000000030
:1030A0000000000000000000000000000000000020
:1030B0000000000000000000000000000000000010
:1030C0000000000000000000000000000000000000
:1030D00000000000000000000000000000000000F0
:1030E00000000000000000000000000000000000E0
:1030F0000000000000000000B0D0FF7F01000000D1
:103100005D01000800000000390100080000000017
:104000005A5A5A5A00000000390100080000000006
:105000005255495F424F4F545F302E385F53544DD5
:105010003332574C45354343000000000000000088
:1050200000093D0001000000100000000000000029
:1060000000FC002045780008C17800084D790008A0
:10601000B9790008BB790008BD79000800000000CC
:10602000000000000000000000000000BF79000830
:10603000C179000800000000C3790008C379000896
:106040009578000895780008E179000895780008AF
:106050009578000895780008377A00083D7A00089E
:10606000437A0008497A00084F7A0008ED79000861
:10607000F9790008057A0008117A00089578000877
:1060800095780008957800089578000895780008BC
:106090009578000895780008557A000895780008EA
:1060A000957800089578000895780008957800089C
:1060B000957800089578000895780008957800088C
:1060C000AD9C0208B99C02089578000895780008F4
:1060D0001D7A0008357A0008E97A000895780008EA
:1060E00095780008957A0008C97900089578000825
:1060F000957800089578000895780008957800084C
:106100009578000895780008D5790008017B00088B
:10611000957800089578000895780008957800082B
:10612000957800089578000895780008957800081B
:10613000957800089578000895780008957800080B
:1061400010B5054C237833B9044B13B10448AFF3B1
:1061500000800123237010BD100F002000000000FC
:10616000E8EF020808B5034B1BB103490348AFF33E
:10617000008008BD00000000140F0020E8EF0208B6
:1061800010F8012B11F8013B012A28BF9A42F7D0E1
:10619000D01A7047034613F8012B002AFBD1181AB6
:1061A00001387047000000000000000000000000FF
:1061B00001F0FF01102A2BDB10F0070F08D010F8B8
:1061C000013B013A8B422DD010F0070F42B3F6D1BC
:1061D000F0B441EA012141EA014122F007047FF0D5
:1061E00000070023F0E80256083C85EA010586EA2C
:1061F000010685FA47F5A3FA87F586FA47F6A5FA68
:1062000087F68EB9EED1F0BC01F0FF0102F0070273
:1062100032B110F8013B013A83EA010313B1F8D11E
:106220000020704701387047002D06BF35460338FF
:10623000073815F0010F07D1013015F4807F02BF38
:10624000013015F4C03F0130F0BC0138704700BF89
:1062500081F0004102E000BF83F0004330B54FEA17
:1062600041044FEA430594EA050F08BF90EA020F84
:106270001FBF54EA000C55EA020C7FEA645C7FEA17
:10628000655C00F0E2804FEA5454D4EB5555B8BF3A
:106290006D420CDD2C4480EA020281EA030382EAAB
:1062A000000083EA010180EA020281EA0303362D3D
:1062B00088BF30BD11F0004F4FEA01314FF4801C10
:1062C0004CEA113102D0404261EB410113F0004F22
:1062D0004FEA03334CEA133302D0524263EB4303D9
:1062E00094EA050F00F0A780A4F10104D5F1200E77
:1062F0000DDB02FA0EFC22FA05F2801841F10001D2
:1063000003FA0EF2801843FA05F359410EE0A5F1A5
:1063100020050EF1200E012A03FA0EFC28BF4CF0D6
:10632000020C43FA05F3C01851EBE37101F000458C
:1063300007D54FF0000EDCF1000C7EEB00006EEB99
:106340000101B1F5801F1BD3B1F5001F0CD3490823
:106350005FEA30004FEA3C0C04F101044FEA44527A
:1063600012F5800F80F09A80BCF1004F08BF5FEA01
:10637000500C50F1000041EB045141EA050130BDE1
:106380005FEA4C0C404141EB0101013C28BFB1F5F3
:10639000801FE9D291F0000F04BF01460020B1FA3E
:1063A00081F308BF2033A3F10B03B3F120020CDA11
:1063B0000C3208DD02F1140CC2F10C0201FA0CF0EF
:1063C00021FA02F10CE002F11402D8BFC2F1200C54
:1063D00001FA02F120FA0CFCDCBF41EA0C0190400A
:1063E000E41AA2BF01EB0451294330BD6FEA040453
:1063F0001F3C1CDA0C340EDC04F11404C4F120023E
:1064000020FA04F001FA02F340EA030021FA04F34F
:1064100045EA030130BDC4F10C04C4F1200220FAA6
:1064200002F001FA04F340EA0300294630BD21FAE4
:1064300004F0294630BD94F0000F83F4801306BFAA
:1064400081F480110134013D4EE77FEA645C18BF9E
:106450007FEA655C29D094EA050F08BF90EA020F35
:1064600005D054EA000C04BF1946104630BD91EA2D
:10647000030F1EBF0021002030BD5FEA545C05D130
:106480004000494128BF41F0004130BD14F580046F
:106490003CBF01F5801130BD01F0004545F0FE41E3
:1064A00041F470014FF0000030BD7FEA645C1ABF18
:1064B000194610467FEA655C1CBF0B46024650EA4F
:1064C000013406BF52EA033591EA030F41F400217B
:1064D00030BD00BF90F0000F04BF0021704730B501
:1064E0004FF4806404F132044FF000054FF00001D6
:1064F00050E700BF90F0000F04BF0021704730B597
:106500004FF4806404F1320410F0004548BF40426B
:106510004FF000013EE700BF42004FEAE2014FEAC0
:1065200031014FEA02701FBF12F07F4393F07F4F9B
:1065300081F06051704732F07F4208BF704793F09E
:106540007F4F04BF41F40021704730B54FF46074B1
:1065500001F0004521F000411CE700BF50EA0102B4
:1065600008BF704730B54FF000050AE050EA01025D
:1065700008BF704730B511F0004502D5404261EBCD
:1065800041014FF4806404F132045FEA915C3FF40E
:10659000D8AE4FF003025FEADC0C18BF03325FEAAB
:1065A000DC0C18BF033202EBDC02C2F1200300FA5C
:1065B00003FC20FA02F001FA03FE40EA0E0021FA81
:1065C00002F11444BDE600BF70B54FF0FF0C4CF46F
:1065D000E06C1CEA11541DBF1CEA135594EA0C0F21
:1065E00095EA0C0F00F0DEF82C4481EA030621EA5C
:1065F0004C5123EA4C5350EA013518BF52EA033597
:1066000041F4801143F4801338D0A0FB02CE4FF048
:106610000005E1FB02E506F00042E0FB03E54FF078
:106620000006E1FB03569CF0000F18BF4EF0010E70
:10663000A4F1FF04B6F5007F64F5407404D25FEA6C
:106640004E0E6D4146EB060642EAC62141EA55511F
:106650004FEAC52040EA5E504FEACE2EB4F1FD0C61
:1066600088BFBCF5E06F1ED8BEF1004F08BF5FEADF
:10667000500E50F1000041EB045170BD06F0004691
:1066800046EA010140EA020081EA0301B4EB5C043E
:10669000C2BFD4EB0C0541EA045170BD41F4801136
:1066A0004FF0000E013C00F3AB8014F1360FDEBF5B
:1066B000002001F0004170BDC4F10004203C35DA37
:1066C0000C341BDC04F11404C4F1200500FA05F3BA
:1066D00020FA04F001FA05F240EA020001F000425B
:1066E00021F0004110EBD37021FA04F642EB0601D1
:1066F0005EEA430E08BF20EAD37070BDC4F10C04FB
:10670000C4F1200500FA04F320FA05F001FA04F2BE
:1067100040EA020001F0004110EBD37041F10001AA
:106720005EEA430E08BF20EAD37070BDC4F12005B5
:1067300000FA05F24EEA020E20FA04F301FA05F21D
:1067400043EA020321FA04F001F0004121FA04F2C5
:1067500020EA020000EBD3705EEA430E08BF20EA95
:10676000D37070BD94F0000F0FD101F000464000CF
:1067700041EB010111F4801F08BF013CF7D041EA51
:10678000060195F0000F18BF704703F00046520055
:1067900043EB030313F4801F08BF013DF7D043EA26
:1067A0000603704794EA0C0F0CEA135518BF95EADC
:1067B0000C0F0CD050EA410618BF52EA4306D1D163
:1067C00081EA030101F000414FF0000070BD50EA82
:1067D000410606BF1046194652EA430619D094EA0C
:1067E0000C0F02D150EA013613D195EA0C0F05D1F6
:1067F00052EA03361CBF104619460AD181EA03014A
:1068000001F0004141F0FE4141F470014FF0000001
:1068100070BD41F0FE4141F4780170BD70B54FF09C
:10682000FF0C4CF4E06C1CEA11541DBF1CEA13551C
:1068300094EA0C0F95EA0C0F00F0A7F8A4EB0504FE
:1068400081EA030E52EA03354FEA013100F08880F5
:106850004FEA03334FF0805545EA131343EA1263BE
:106860004FEA022245EA111545EA10654FEA002673
:106870000EF000419D4208BF964244F1FD0404F52C
:10688000407402D25B084FEA3202B61A65EB030588
:106890005B084FEA32024FF480104FF4002CB6EB45
:1068A000020E75EB030E22BFB61A754640EA0C00C5
:1068B0005B084FEA3202B6EB020E75EB030E22BF05
:1068C000B61A754640EA5C005B084FEA3202B6EB46
:1068D000020E75EB030E22BFB61A754640EA9C0005
:1068E0005B084FEA3202B6EB020E75EB030E22BFD5
:1068F000B61A754640EADC0055EA060E18D04FEA93
:10690000051545EA16754FEA06164FEAC30343EA32
:1069100052734FEAC2025FEA1C1CC0D111F4801FFF
:106920000BD141EA00014FF000004FF0004CB6E7F8
:1069300011F4801F04BF01430020B4F1FD0C88BF97
:10694000BCF5E06F3FF6AFAEB5EB030C04BFB6EBA2
:10695000020C5FEA500C50F1000041EB045170BD95
:106960000EF0004E4EEA113114EB5C04C2BFD4EBC2
:106970000C0541EA045170BD41F480114FF0000E46
:10698000013C90E645EA060E8DE60CEA135594EAC2
:106990000C0F08BF95EA0C0F3FF43BAF94EA0C0FC5
:1069A0000AD150EA01347FF434AF95EA0C0F7FF43A
:1069B00025AF104619462CE795EA0C0F06D152EA8E
:1069C00003353FF4FDAE1046194622E750EA410672
:1069D00018BF52EA43067FF4C5AE50EA41047FF483
:1069E0000DAF52EA43057FF4EBAE12E74FF0FF3CE8
:1069F00006E000BF4FF0010C02E000BF4FF0010CB9
:106A00004DF804CD4FEA410C7FEA6C5C4FEA430C31
:106A100018BF7FEA6C5C1BD001B050EA410C0CBF80
:106A200052EA430C91EA030F02BF90EA020F0020E2
:106A3000704710F1000F91EA030F58BF994208BF49
:106A400090422CBFD8176FEAE37040F00100704706
:106A50004FEA410C7FEA6C5C02D150EA013C07D15D
:106A60004FEA430C7FEA6C5CD6D152EA033CD3D0A8
:106A70005DF8040B704700BF8446104662468C46A2
:106A80001946634600E000BF01B5FFF7B7FF0028D5
:106A900048BF10F1000F01BD4DF808EDFFF7F4FFFE
:106AA0000CBF012000205DF808FB00BF4DF808ED89
:106AB000FFF7EAFF34BF012000205DF808FB00BFAC
:106AC0004DF808EDFFF7E0FF94BF012000205DF8CE
:106AD00008FB00BF4DF808EDFFF7CEFF94BF012083
:106AE00000205DF808FB00BF4DF808EDFFF7C4FF7C
:106AF00034BF012000205DF808FB00BF4FEA410CC5
:106B00007FEA6C5C02D150EA013C0AD14FEA430CA7
:106B10007FEA6C5C02D152EA033C02D14FF00000E4
:106B200070474FF0010070474FEA410212F5001222
:106B300015D211D56FF47873B3EB625212D94FEAC4
:106B4000C12343F0004343EA505311F0004F23FAAE
:106B500002F018BF404270474FF00000704750EA03
:106B6000013005D111F0004008BF6FF000407047C0
:106B70004FF00000704700BF80F0004002E000BF0F
:106B800081F0004142001FBF5FEA410392EA030F18
:106B90007FEA226C7FEA236C6AD04FEA1262D2EB62
:106BA0001363C1BFD218414048404140B8BF5B4267
:106BB000192B88BF704710F0004F40F4000020F000
:106BC0007F4018BF404211F0004F41F4000121F016
:106BD0007F4118BF494292EA030F3FD0A2F1010260
:106BE00041FA03FC10EB0C00C3F1200301FA03F19E
:106BF00000F0004302D5494260EB4000B0F5000FC1
:106C000013D3B0F1807F06D340084FEA310102F17F
:106C10000102FE2A51D2B1F1004F40EBC25008BF31
:106C200020F0010040EA03007047490040EB0000FB
:106C3000013A28BFB0F5000FEDD2B0FA80FCACF1FC
:106C4000080CB2EB0C0200FA0CF0AABF00EBC25029
:106C500052421843BCBFD0401843704792F0000F17
:106C600081F4000106BF80F400000132013BB5E76A
:106C70004FEA41037FEA226C18BF7FEA236C21D0E0
:106C800092EA030F04D092F0000F08BF0846704745
:106C900090EA010F1CBF0020704712F07F4F04D113
:106CA000400028BF40F00040704712F100723CBF26
:106CB00000F50000704700F0004343F0FE4040F450
:106CC000000070477FEA226216BF08467FEA23630E
:106CD0000146420206BF5FEA412390EA010F40F4F9
:106CE000800070474FF0000304E000BF10F0004345
:106CF00048BF40425FEA000C08BF704743F096432C
:106D000001464FF000001CE050EA010208BF704746
:106D10004FF000030AE000BF50EA010208BF7047CD
:106D200011F0004302D5404261EB41015FEA010CE2
:106D300002BF84460146002043F0B64308BFA3F1DA
:106D40008053A3F50003BCFA8CF2083AA3EBC253BC
:106D500010DB01FA02FC634400FA02FCC2F12002DB
:106D6000BCF1004F20FA02F243EB020008BF20F012
:106D70000100704702F1200201FA02FCC2F1200278
:106D800050EA4C0021FA02F243EB020008BF20EA6D
:106D9000DC7070474FF0FF0C1CEAD0521EBF1CEA9B
:106DA000D15392EA0C0F93EA0C0F6FD01A4480EA89
:106DB000010C400218BF5FEA41211ED04FF0006372
:106DC00043EA501043EA5111A0FB01310CF000409E
:106DD000B1F5000F3EBF490041EAD3715B0040EAC4
:106DE000010062F17F02FD2A1DD8B3F1004F40EB94
:106DF000C25008BF20F00100704790F0000F0CF067
:106E0000004C08BF49024CEA502040EA51207F3A2A
:106E1000C2BFD2F1FF0340EAC250704740F4000005
:106E20004FF00003013A5DDC12F1190FDCBF00F0F6
:106E300000407047C2F10002410021FA02F1C2F1A4
:106E4000200200FA02FC5FEA310040F1000053EA40
:106E50004C0308BF20EADC70704792F0000F00F08E
:106E6000004C02BF400010F4000F013AF9D040EA94
:106E70000C0093F0000F01F0004C02BF490011F428
:106E8000000F013BF9D041EA0C018FE70CEAD15326
:106E900092EA0C0F18BF93EA0C0F0AD030F0004CA6
:106EA00018BF31F0004CD8D180EA010000F000405A
:106EB000704790F0000F17BF90F0004F084691F018
:106EC000000F91F0004F14D092EA0C0F01D1420252
:106ED0000FD193EA0C0F03D14B0218BF084608D11B
:106EE00080EA010000F0004040F0FE4040F4000065
:106EF000704740F0FE4040F4400070474FF0FF0CF8
:106F00001CEAD0521EBF1CEAD15392EA0C0F93EA3E
:106F10000C0F69D0A2EB030280EA010C49024FEA90
:106F2000402037D04FF0805343EA111143EA101349
:106F30000CF000408B4238BF5B0042F17D024FF401
:106F4000000C8B4224BF5B1A40EA0C00B3EB510FDC
:106F500024BFA3EB510340EA5C00B3EB910F24BFC5
:106F6000A3EB910340EA9C00B3EBD10F24BFA3EB4A
:106F7000D10340EADC001B0118BF5FEA1C1CE0D112
:106F8000FD2A3FF650AF8B4240EBC25008BF20F0C5
:106F9000010070470CF0004C4CEA50207F32C2BF19
:106FA000D2F1FF0340EAC250704740F400004FF0B6
:106FB0000003013A37E792F0000F00F0004C02BFE7
:106FC000400010F4000F013AF9D040EA0C0093F0B1
:106FD000000F01F0004C02BF490011F4000F013B0B
:106FE000F9D041EA0C0195E70CEAD15392EA0C0F73
:106FF00008D142027FF47DAF93EA0C0F7FF470AFAB
:10700000084676E793EA0C0F04D14B023FF44CAFED
:1070100008466EE730F0004C18BF31F0004CCAD182
:1070200030F000427FF45CAF31F000437FF43CAFBE
:107030005FE700BF4FF0FF3C06E000BF4FF0010CE0
:1070400002E000BF4FF0010C4DF804CD4FEA4002C2
:107050004FEA41037FEA226C18BF7FEA236C11D00C
:1070600001B052EA530C18BF90EA010F58BFB2EBBF
:10707000030088BFC81738BF6FEAE17018BF40F03F
:10708000010070477FEA226C02D15FEA402C05D1F3
:107090007FEA236CE4D15FEA412CE1D05DF8040B78
:1070A000704700BF844608466146FFE70FB5FFF70B
:1070B000C9FF002848BF10F1000F0FBD4DF808EDC3
:1070C000FFF7F4FF0CBF012000205DF808FB00BFB4
:1070D0004DF808EDFFF7EAFF34BF012000205DF80E
:1070E00008FB00BF4DF808EDFFF7E0FF94BF01205B
:1070F00000205DF808FB00BF4DF808EDFFF7D2FF58
:1071000094BF012000205DF808FB00BF4DF808ED9A
:10711000FFF7C8FF34BF012000205DF808FB00BF67
:1071200053B94AB9002908BF00281CBF4FF0FF31EE
:107130004FF0FF3000F074B9ADF1080C6DE904CEEA
:1071400000F006F8DDF804E0DDE9022304B0704742
:107150002DE9F047089E0D4604468846002B4DD188
:107160008A42944668D9B2FA82F252B101FA02F325
:10717000C2F1200120FA01F10CFA02FC41EA0308F5
:1071800094404FEA1C45210CB8FBF5FE1FFA8CF722
:1071900005FB1E8341EA03430EFB07F199420BD91D
:1071A0001CEB03030EF1FF3080F01E81994240F288
:1071B0001B81AEF1020E63445B1AA4B2B3FBF5F07F
:1071C00005FB103344EA034400FB07F7A7420AD942
:1071D0001CEB040400F1FF3380F00881A74240F269
:1071E000058164440238E41B40EA0E4000211EB1D0
:1071F000D4400023C6E90043BDE8F0878B4208D99C
:10720000002E00F0EE800021C6E900050846BDE82A
:10721000F087B3FA83F100294AD1AB4202D382420C
:1072200000F2F980841A65EB030301209846002ED2
:10723000E2D0C6E90048DFE702B9FFDEB2FA82F227
:10724000002A40F09180A1EB0C054FEA1C471FFA81
:107250008CFE0121B5FBF7F307FB1350250C45EA23
:1072600000450EFB03F0A84208D91CEB050503F10D
:10727000FF3802D2A84200F2CB8043462D1AA4B2B6
:10728000B5FBF7F007FB105544EA05440EFB00FE82
:10729000A64508D91CEB040400F1FF3502D2A6452F
:1072A00000F2BB802846A4EB0E0440EA03409EE7B0
:1072B000C1F120078B4022FA07FC4CEA030C20FAAC
:1072C00007F405FA01F31C43FD404FEA1C4900FA9C
:1072D00001F3B5FBF9F8200C1FFA8CFE09FB1855D9
:1072E00040EA054508FB0EF0A84202FA01F20BD96C
:1072F0001CEB050508F1FF3A80F08880A84240F2B7
:107300008580A8F1020865442D1AA4B2B5FBF9F0F6
:1073100009FB105544EA054500FB0EFEAE4508D9B1
:107320001CEB050500F1FF346CD2AE456AD902387A
:10733000654440EA0840A0FB0294A5EB0E05A54277
:10734000C846A64656D353D05EB1B3EB080265EBF0
:107350000E0505FA07F722FA01F3CD401F43C6E9EF
:1073600000750021BDE8F087C2F1200320FA03F187
:107370000CFA02FC25FA03F395400D434FEA1C4733
:107380001FFA8CFEB3FBF7F107FB11302B0C43EA1D
:10739000004301FB0EF0984204FA02F408D91CEBFA
:1073A000030301F1FF382FD298422DD902396344EB
:1073B0001B1AADB2B3FBF7F007FB103345EA0345E8
:1073C00000FB0EF3AB4208D91CEB050500F1FF38BA
:1073D00016D2AB4214D902386544ED1A40EA014195
:1073E00038E73146304607E78646E5E61846FAE6CE
:1073F0004B45A9D2B9EB020864EB0C0E0138A3E7A8
:107400004046EAE7204694E74146D1E7D0467BE78D
:10741000023B654432E7084609E76444023842E724
:10742000704700BF10B59AB04822002108A824F088
:1074300089FC1822002102A824F084FC0EF0FEFE34
:107440004FF0B0420024D2F8903023F01803C2F875
:107450009030D2F8003423F4C06343F40073C2F8D0
:107460000034D2F80034119403F4C06301934FF454
:107470008072019B0C922E234022089381230B9350
:107480000D920123B02208A8CDE90E341093129278
:1074900013940EF079FA08B101F096F94F23022106
:1074A00002A8CDE90234CDE90444CDE906440EF04A
:1074B0000DFD08B101F088F91AB010BD13B50378BD
:1074C000082B2DD8DFE803F013848B2C9494052C23
:1074D0009A00047920460AF05FFE204606F024FC5C
:1074E0000021204602B0BDE810400AF05DBE002039
:1074F0000AF052FE012826D101200AF04DFE012893
:1075000004D001200CF016FC00282ADC02200AF02E
:1075100043FE012804D002200CF00CFC00283BDCC8
:1075200002B010BD012201A900200CF0CBFA00200E
:107530000AF032FE044630B90CF0D8FB48B99DF889
:10754000041006F05DFB00200CF0F4FB0028E9DCE1
:10755000D2E70128F7D19DF8041020460CF020FB5B
:10756000F1E7012201A910460CF0ACFA01200AF063
:1075700013FE0028C5D101200CF0B8FB28B99DF8F6
:107580000410012006F03CFBBBE70128B9D19DF8AF
:1075900004100CF005FBB4E7012201A902200CF055
:1075A00091FA02200AF0F8FD0028B4D102200CF074
:1075B0009DFB28B99DF80410022006F021FBAAE7E4
:1075C0000128A8D19DF8041002200CF0E9FAA2E7E6
:1075D00015F040FD02B0BDE8104006F07DBA0A4B40
:1075E0001B68002B9CD0406802B0BDE810401847D3
:1075F000406802B0BDE810400CF036BC406802B0F4
:10760000BDE810400CF0E6B8DC26002030B52D4B6C
:107610002D4A9A6085B00CF0D7FCFFF703FF4FF0BE
:10762000B0430B209A6C42F004029A649A6C02F008
:1076300004020392039A9A6C42F001029A649B6CD2
:10764000002203F0010311460293029B0EF04EFD4F
:107650000B200EF07DFD0CF0FBFB0BF031FF0AF070
:107660004BFE002401460546234603220120CDE9B6
:1076700000440CF067F92346032229460220CDE995
:1076800000440CF05FF90AF053FD0AF0D3FE03F05A
:1076900005FCE5B228460AF07FFD10B9284606F041
:1076A00043FB0134032CF4D10CF0B8FB0BF0D4FBFA
:1076B000012804D105B0BDE8304004F01DBC05B080
:1076C00030BD00BF00ED00E000600008F7B5FFF737
:1076D0009DFF4FF0B0432E4EDA6C2E4C42F002026A
:1076E000DA64DB6C03F002030193019B06F073FB89
:1076F000294B341B1427474300251C44BD4223D388
:1077000021F058FB00F076F898B3244801F0A9FC6A
:10771000234B24481A68244B196801F0A2FC234823
:107720000CF094F901F0D2FF012824D0022824D0D3
:1077300010B91F480CF08AF91E4C0CF07DFB237821
:10774000EBB921F039FBF8E76A46042160190BF028
:10775000F9FE69463246042312F801CB11F8010BF9
:10776000844518BF02F8010C013BF5D104350436FD
:10777000C4E71148CAE71148DCE71148DAE70AF024
:1077800053FD0028D9D000200CF0A6F8D5E700BFA3
:107790008801002000000020202A0308A2F202082D
:1077A000F80E0020B8F20208EC0E0020C8F2020821
:1077B000DCF202082C0F0020ADF20208E8F2020809
:1077C000F3F2020800F0B8BE00F0BBBE7047000044
:1077D000BFF34F8F0549064BCA6802F4E0621343BA
:1077E000CB60BFF34F8F00BFFDE700BF00ED00E0AF
:1077F0000400FA0570B586B01022002102A824F01A
:10780000A1FA4FF0B0430E4DDA6C42F00202DA6496
:10781000DB6C03F002034FF48056009301A9284665
:10782000009B01960EF044FF314628460FF066F8A3
:107830003146044628460EF0EDFF204606B070BDE6
:10784000000400480D48854621F05EFC0C480D49B7
:107850000D4A002302E0D458C4500433C4188C42AB
:10786000F9D30A4A0A4C002301E013600432A24211
:10787000FBD324F0EBF9FFF729FFFEE700FC002023
:1078800000000020100F0020202A0308100F002005
:10789000387F002000F05AB80368074A934206D1A7
:1078A000DA69D20606D510221A6201F013BA034A29
:1078B0009342F5D0704700BF00800040003801407F
:1078C0004FF0B0434FF0FF319A6B9963DA6BD96395
:1078D0009A6B00229A63D86BDA63186C1964186C7F
:1078E0001A64586C5964586C5A64986A9962986A18
:1078F0009A62D86AD962D86ADA62186B1963196B0E
:107900001A635A6C42F001025A645A6C22F0010266
:107910005A64D3F8902042F48032C3F89020D3F810
:10792000902022F48032C3F89020BFF34F8F054996
:10793000054BCA6802F4E0621343CB60BFF34F8F7C
:1079400000BFFDE700ED00E00400FA054FF0B04392
:107950004FF0FF319A6B9963DA6BD9639A6B00220F
:107960009A63D86BDA63186C1964186C1A64586CD3
:107970005964586C5A64986A9962986A9A62D86A8B
:10798000D962D86ADA62186B1963196B1A635A6C78
:1079900042F001025A645A6C22F001025A64D3F890
:1079A000902042F48032C3F89020D3F8902022F443
:1079B0008032C3F89020FEE7FEE7FEE7FEE770475F
:1079C00070470CF017BB0000014812F049BC00BF23
:1079D0008419002001480FF0A8B900BF8C7C00205A
:1079E000014812F00DBE00BF8419002001480EF0BE
:1079F000F5BD00BF4420002001480EF0EFBD00BFE0
:107A0000BC19002001480EF0E9BD00BF1C1A00207F
:107A100001480EF0E3BD00BFA420002010B5044CC7
:107A200020460DF02BF82046BDE81040FFF734BF8C
:107A300094210020704701200EF06CBF02200EF050
:107A400069BF04200EF066BF08200EF063BF10204F
:107A50000EF060BF0E4BDA68920602D520200EF0C1
:107A600059BFDA68500601D54020F8E7DA681106F8
:107A700001D58020F3E7DA68D20502D54FF4807093
:107A8000EDE7DB689B0502D54FF40070E7E7704730
:107A900000080058134BDA68510503D54FF4806095
:107AA0000EF038BFDA68120502D54FF40060F7E730
:107AB000DA68D00402D54FF48050F1E7DA68910417
:107AC00002D54FF40050EBE7DA68520402D54FF4C8
:107AD0008040E5E7DB681B0402D54FF40040DFE798
:107AE000704700BF0008005810B5044C20460CF049
:107AF000C5FF2046BDE81040FFF7CEBE04210020A0
:107B000001480FF0B3BF00BF940F00204FF0B04307
:107B100082B0DA6C0243DA64DB6C18400190019B9E
:107B200002B070471FB514284FF00003CDE90233AF
:107B30000C460CD8092812D90A380A280FD8DFE8D1
:107B400000F07B0E0E0E0E820E0E74116D00FE28DC
:107B500000F08380FF2800F08280FD287AD06FF04B
:107B6000030059E03F4A404B0193137843F001036F
:107B700013703E483E4A4FF00043C0E900233D4B9E
:107B800004221B688360426100230122C2614FF41A
:107B9000805106220383C0E90333C0E90933C0E9F9
:107BA0000C12837680F8203080F82C30836380F8C4
:107BB0003C30C3640CF068FA08B100F005FE2B48B5
:107BC0000CF02CFE08B100F0FFFD0023274801A9AE
:107BD000CDE902330CF0E0FB08B100F0F5FD2348DD
:107BE0000CF046FD08B100F0EFFD0A211F480CF033
:107BF00075FB1E480CF0F4FD1C480CF0CAFB1E4B34
:107C0000019A80B29A42208004BF00EB400020809D
:107C100016480CF091FD002004B010BD114A174B1E
:107C20000193137843F00203A2E70E4A144B019329
:107C3000137843F004039BE70A4A124B019313782D
:107C400043F0080394E7074A0F4B0193137843F07E
:107C500010038DE70D4B01938BE70D4BFBE7064BB4
:107C6000F9E700BF2D0F002004000008300F0020AE
:107C70000024014004000020004000B80800000C6F
:107C800010000010400000180008002C001000B088
:107C9000002000B470477047014B1878704700BF50
:107CA00009000020014B1878704700BF0800002031
:107CB00010B5044686B01422002101A824F042F831
:107CC00022685E4B9A4240F08E804FF0B0435C4C8D
:107CD0001A6E42F400721A661B6E03F4007300936E
:107CE000009B2378DA0708D5132000F085FAB0F15D
:107CF000904F7AD10120FFF709FF23789B0708D521
:107D0000142000F079FAB0F1904F76D10120FFF7FE
:107D1000FDFE2378580708D5122000F06DFAB0F167
:107D2000904F72D10120FFF7F1FE2378190708D593
:107D30000A2000F061FAB0F1904F6ED10120FFF7F8
:107D4000E5FE2378DA0608D50F2000F055FAB0F1E9
:107D5000904F6AD10120FFF7D9FE00234FF0030CAA
:107D6000CDE902C32378DB0709D5132000F049FAD7
:107D70000190132000F040FA01A90EF099FC23783D
:107D8000980709D5142000F03CFA0190142000F067
:107D900033FA01A90EF08CFC2378590709D512207B
:107DA00000F02FFA0190122000F026FA01A90EF03F
:107DB0007FFC23781A0709D50A2000F022FA0190E7
:107DC0000A2000F019FA01A90EF072FC2378DB06F4
:107DD00009D50F2000F015FA01900F2000F00CFAE1
:107DE00001A90EF065FC06B010BD132000F004FAE6
:107DF000144B984281D102207DE7142000F0FCF959
:107E0000104B984285D1022081E7122000F0F4F94E
:107E10000C4B984289D1022085E70A2000F0ECF94A
:107E2000084B98428DD1022089E70F2000F0E4F939
:107E3000044B984291D102208DE700BF00240140FD
:107E40002D0F00200004004838B5334B02689A42D9
:107E500060D14FF0B042314C136E23F400731366BF
:107E60002378DD070ED5132000F0C6F90546132050
:107E700000F0C7F9014628460EF0CCFC237823F029
:107E800001032370237898070ED5142000F0B4F96D
:107E90000546142000F0B5F9014628460EF0BAFC5C
:107EA000237823F002032370237859070ED512207C
:107EB00000F0A2F90546122000F0A3F90146284679
:107EC0000EF0A8FC237823F00403237023781A070C
:107ED0000ED50A2000F090F905460A2000F091F92D
:107EE000014628460EF096FC237823F00803237001
:107EF0002378DB060ED50F2000F07EF905460F2013
:107F000000F07FF9014628460EF084FC237823F028
:107F10001003237038BD00BF002401402D0F002046
:107F20000A4B00F11002C1781970817859704178BC
:107F3000997010F8041BD970904203F10403F2D138
:107F4000034B10221A800020704700BFA0100020B1
:107F50000A0000202DE9F04FDFF8FC80DFF8FCC0BC
:107F6000DFF8FCB085B002AF04461646404600225A
:107F7000C8E900C2C8E909223D8ED7F834A079606B
:107F80009946C8F80820C8F80CB0C8F81420C8F8FA
:107F90002C200FF065F908B100F016FC2E480FF008
:107FA00082F908B100F010FC2C480422C8E9000254
:107FB0000022C8F80820002C3AD1C8F8144000224A
:107FC00001212548C8F80CB0C8E90912C8F82C20CE
:107FD0000FF046F908B100F0F7FB2B071DBF25F0A5
:107FE0000F041034A4B22C46A300073323F0070378
:107FF000ADEB030D02AE22460021304623F0A2FE77
:108000002A464946304623F075FE7A68FF230093DE
:108010005346BAB91048224631460FF0BBFB70B93F
:108020000D480FF040F998B90C37BD46BDE8F08F08
:10803000012C0CBF20224022C8E90462BFE76FF088
:108040000600F1E72246314603480FF037FCE6E729
:1080500000F0BAFB0020E7E7940F0020001800585A
:10806000B010002021F00803102B10B501D02029FA
:1080700013D10B4B00F11002C4781C7084785C7033
:1080800044789C7010F8044BDC70904203F10403B8
:10809000F2D1044B0020198010BD6FF01F00FBE7E8
:1080A000B0100020C010002007B5CDE9001200225A
:1080B000034611461046FFF74DFF03B05DF804FB81
:1080C00070B586B004460D4616460021102202A85F
:1080D00023F038FE074B08491A8802A823F00AFE4D
:1080E000CDE90056234602AA00210120FFF732FF06
:1080F00006B070BD0A000020A010002070B586B048
:1081000004460D4616460021102202A823F01AFE4E
:10811000074B08491A8802A823F0ECFD0121CDE99C
:108120000056234602AA0846FFF714FF06B070BDAA
:108130000A000020A010002008B5FFF793FFC0B28E
:1081400008BD08B510230A461946FFF7ADFFC0B2B7
:1081500008BD70B51446054618460E46FFF7E0FE0A
:1081600023019BB2324619462846FFF7A9FFC0B249
:1081700070BD70B51446054618460E46FFF7D0FE92
:1081800023019BB2324619462846FFF7B7FFC0B21B
:1081900070BD0000034B00221A70034B01221A70BD
:1081A000704700BF4A5C0020485C0020024B53F837
:1081B000203003B118477047C41800200022012363
:1081C0000342D1B202F101020DD02F290ED8084B83
:1081D000084800221A70082300F8313000EBC10073
:1081E00041600BF023BE5B009BB2E9E7704700BF24
:1081F0004A5C002044180020000900F5901080021D
:10820000704700F00F030120984080B270470000D3
:108210002F28F8B5054600F28280414E14224243D1
:1082200000F00F040123B018A340B35003294FF00E
:108230000202C2602DD801292ED94FF48812426063
:108240002846FFF7D9FFC76893FAA3F2B2FA82F281
:10825000510003228A403A4093FAA3F3B3FA83F31E
:108260005B0022FA03F3012B4FF014021ED0022B05
:108270001CD0142101FB05610EF01AFAD4B90620B6
:10828000224602210DF032FF0620BDE8F8400DF035
:108290005FBF0439012906D9142202FB05624FF49D
:1082A00044115160CCE74FF40412C8E702FB0562A9
:1082B0009360DEE7012C06D10720002202210DF099
:1082C00015FF0720E1E7022C06D1082000222146F5
:1082D0000DF00CFF0820D8E7032C06D1092000225E
:1082E00002210DF003FF0920CFE7042C06D10A205C
:1082F000002202210DF0FAFE0A20C6E7053C042CFC
:108300004FF000024FF0020104D816200DF0EEFEEF
:108310001620BAE729200DF0E9FE2920B5E7F8BDBF
:10832000C4100020044B00F00F0053F820200AB9BD
:1083300043F8201000207047C41800202DE9F843AE
:10834000174E184D184FDFF86480DFF86490002452
:108350000F2C05DDA4F11203052B01D91C2C15D11E
:1083600057F8243093B973682B60B3686B60F36877
:10837000AB603369EB602B7C43B198F8001020466A
:10838000FFF746FF49462046FFF7CCFF0134302C6B
:1083900006F1140605F11405DAD1BDE8F88300BF33
:1083A000C410002084140020C41800200C000020F9
:1083B00095810008F8B5124E124D134F00240F2C72
:1083C00005DDA4F11203052B01D91C2C10D157F89F
:1083D00024306BB933686B607368AB60B368EB6073
:1083E0002046F3682B612946FFF706FF0EF060F97F
:1083F0000134302C06F1140605F11405DFD1F8BD67
:1084000084140020C4100020C418002000B58DB0D2
:108410002C22002101A823F095FC1748174B03607C
:108420004FF080420023C0E90433C0E90723836092
:1084300083614FF48073436211F090FF08B100F044
:10844000C3F90D4812F0B2F808B100F0BDF94FF0D1
:108450007C5300220793084808924FF4807301A9C7
:10846000029206920B9311F0D5FF08B100F0ACF91F
:1084700000200DB05DF804FB8419002000280040A6
:1084800007B5074B0DF106001B699847BDF806308C
:108490004FF47A7202FB0030002103B05DF804FB58
:1084A000782303087047704708B50A480EF0EFFCC0
:1084B000002211460C200DF019FE0C200DF048FE94
:1084C00000220D2011460DF011FEBDE808400D20E0
:1084D0000DF03EBE100000207047000038B5054D7D
:1084E000002415F8013B0BB1FFF7DEFF0134042C2B
:1084F000F7D138BD7C1A002070B50D4614460646EB
:108500000BF0ACFD30600BF0AFFD28600BF0B2FD5E
:10851000206070BDBFF34F8F0549064BCA6802F457
:10852000E0621343CB60BFF34F8F00BFFDE700BF96
:1085300000ED00E00400FA0572B6EFF3108303606B
:108540007047036883F3108862B670477047000075
:10855000084B02460021084819700421074B00F817
:10856000321000EBC2000C2101FB023242600BF022
:108570005DBC00BF4A5C0020A81A0020FC1B002044
:10858000084B02460021084819700521074B00F8E6
:10859000321000EBC2000C2101FB023242600BF0F2
:1085A00045BC00BF4A5C0020801A0020481B002008
:1085B00083680BB1406818477047003818BF012026
:1085C000704711F00DBB000037B503460C24104670
:1085D0000E4A5C43042B02EB0405135598BF0C4A6A
:1085E000A96094BF52F823400024FFF7E6FF4FF044
:1085F000FF31024600932046064B11F0FBFA00289B
:1086000014BF6FF00600002003B030BDFC1B00203B
:10861000FCF2020851850008042898BF0D4B70B584
:1086200098BF53F820400C4D4FF00C0300FB03F3B0
:1086300005EB030688BF0024E8547260204611F061
:10864000C5FB18B9204611F087FB08B16FF0060092
:1086500070BD00BFFCF20208FC1B0020042898BF7C
:108660000B4A08B5034698BF52F82000094A4FF05C
:108670000C0101FB03234FF0000288BF00205A6069
:1086800011F01AFB002814BF6FF00600002008BD8F
:10869000FCF20208FC1B002037B503460C241046F0
:1086A0000E4A5C43042B02EB0405135598BF0C4A99
:1086B000A96094BF52F823400024FFF77EFF4FF0DB
:1086C000FF31024600932046064B11F093FA002832
:1086D00014BF6FF00600002003B030BD481B00201F
:1086E00010F3020881850008042898BF0D4B70B56F
:1086F00098BF53F820400C4D4FF00C0300FB03F3E0
:1087000005EB030688BF0024E8547260204611F090
:108710005DFB18B9204611F01FFB08B16FF0060091
:1087200070BD00BF10F30208481B0020042898BF4A
:108730000B4A08B5034698BF52F82000094A4FF08B
:108740000C0101FB03234FF0000288BF00205A6098
:1087500011F0B2FA002814BF6FF00600002008BD27
:1087600010F30208481B0020BFF34F8F0549064B4A
:10877000CA6802F4E0621343CB60BFF34F8F00BFBF
:10878000FDE700BF00ED00E00400FA054FF0B04344
:1087900082B09A6C02439A649B6C18400190019BD2
:1087A00002B0704710B5064C0649802220460CF0F6
:1087B000B3FE2268136843F01003136010BD00BFBE
:1087C000042100202422002008B5FFF7CDFF00007F
:1087D000012810B50BD1094C0949802220460CF024
:1087E0009BFE2268136843F01003136010BD02283B
:1087F000FCD1BDE81040FFF7D5BF00BF9421002099
:10880000AC2200202DE9F04385B0012B9DF83050BB
:108810009DF8348014BF00274FF40057012D044603
:108820000E463DD0032D3ED0002D3FD00025013A0D
:10883000D2B2022A3CD8614B53F82290012C69D164
:108840000420FFF7A3FF2046FFF7A0FF00221146F8
:108850000E200DF04BFC0E200DF07AFC584B5948C1
:1088600083F80180584B0561C0E900360C240023D1
:10887000C0E90297C0E90543C0E907334362B8F194
:10888000000F1BD0B8F1020F01BF082383624FF421
:10889000004383634B480CF0B3FDA0B1FFF764FFC6
:1088A0004FF4C065C3E74FF48065C0E7022A02D0E9
:1088B0004FF00009C2E74FF08059BFE7C0F82880A9
:1088C0000CF06CFDE9E700213E480CF009FF014681
:1088D0000028E3D13B480CF028FF0028DED13948BE
:1088E0000CF0DFFE0028D9D10120FFF771FF4FF413
:1088F0004013019A3348009319460CF05BFE0028A0
:10890000CCD14FF0B042936843F40043936005B07C
:10891000BDE8F083022CFAD1294B2C4C83F802805D
:108920000420FFF733FF0120FFF730FF002211463C
:108930000B200DF0DBFB0B200DF00AFC244B256116
:10894000C4E900360C2200232046C4E90297C4E99A
:108950000523C4E90833A36263660CF01FFD0146DA
:1089600000289BD120460CF0BBFE0146002895D183
:1089700020460CF0DAFE002890D120460CF091FE43
:1089800000288BD1FFF70EFF4FF44013029304AB86
